S30F0001E0120891FF6F40F00EF0989A96
S3150001E01C0891FF6F099300000EBDFF0301AD099333
S3150001E02C00F0F19415EE88D4F196F198F194F19AE9
S3150001E03C88DC5C995C994C990EBDFF0304AD03EE2B
S3150001E04CF298D3D8412A404A454E889A889241245F
S30F0001E05C4044574E40F033F041EE08
S3150001E06688DA4320080B01000B970073409800D607
S3150001E07601D8409802D802980C49FF000C9E0A95D1
S3150001E086FF7F02964098000601182CF0E3D4029809
S3110001E096410802D850EE41EE4300989874
S3150001E0A26750744147010102000300020102BF01E8
S3150001FFEA0DF00DF009F00DF00DF00DF00DF00DF01C
S30B0001FFFA0DF00DF00DF003
S3070001E000000017
S30F0005E0120891FF6F40F00EF0989A92
S3150005E01C0891FF6F099300000EBDFF0301AD09932F
S3150005E02C00F0F19415EE88D4F196F198F194F19AE5
S3150005E03C88DC5C995C994C990EBDFF0304AD03EE27
S3150005E04CF298D3D8412A404A454E889A889241245B
S30F0005E05C4044574E40F033F041EE04
S3150005E06688DA4320080B01000B970073409800D603
S3150005E07601D8409802D802980C49FF000C9E0A95CD
S3150005E086FF7F02964098000601182CF0E3D4029805
S3110005E096410802D850EE41EE4300989870
S3150005E0A26750744147010102000300020102BF01E4
S3150005FFEA0DF00DF009F00DF00DF00DF00DF00DF018
S30B0005FFFA0DF00DF00DF0FF
S3070005E000000013
S70500000000FA
